{
	"Adder.sol": {
		"Adder": {
			"abi": [
				{
					"inputs": [
						{
							"internalType": "address",
							"name": "result_",
							"type": "address"
						}
					],
					"stateMutability": "nonpayable",
					"type": "constructor"
				},
				{
					"inputs": [
						{
							"internalType": "string",
							"name": "message",
							"type": "string"
						},
						{
							"internalType": "address",
							"name": "caller",
							"type": "address"
						}
					],
					"name": "SenderNotMod",
					"type": "error"
				},
				{
					"inputs": [
						{
							"internalType": "uint256",
							"name": "num1_",
							"type": "uint256"
						},
						{
							"internalType": "uint256",
							"name": "num2_",
							"type": "uint256"
						}
					],
					"name": "addNumbers",
					"outputs": [],
					"stateMutability": "nonpayable",
					"type": "function"
				},
				{
					"inputs": [
						{
							"internalType": "uint256",
							"name": "num1_",
							"type": "uint256"
						},
						{
							"internalType": "uint256",
							"name": "num2_",
							"type": "uint256"
						}
					],
					"name": "multiplyNumbers",
					"outputs": [],
					"stateMutability": "nonpayable",
					"type": "function"
				},
				{
					"inputs": [],
					"name": "owner",
					"outputs": [
						{
							"internalType": "address",
							"name": "",
							"type": "address"
						}
					],
					"stateMutability": "view",
					"type": "function"
				},
				{
					"inputs": [
						{
							"internalType": "uint256",
							"name": "newFee_",
							"type": "uint256"
						}
					],
					"name": "setFee",
					"outputs": [],
					"stateMutability": "nonpayable",
					"type": "function"
				}
			],
			"devdoc": {
				"kind": "dev",
				"methods": {},
				"version": 1
			},
			"evm": {
				"assembly": "    /* \"Adder.sol\":245:1342  contract Adder{... */\n  mstore(0x40, 0x80)\n    /* \"Adder.sol\":387:481  constructor(address result_){... */\n  callvalue\n  dup1\n  iszero\n  tag_1\n  jumpi\n  0x00\n  dup1\n  revert\ntag_1:\n  pop\n  mload(0x40)\n  sub(codesize, bytecodeSize)\n  dup1\n  bytecodeSize\n  dup4\n  codecopy\n  dup2\n  dup2\n  add\n  0x40\n  mstore\n  dup2\n  add\n  swap1\n  tag_2\n  swap2\n  swap1\n  tag_3\n  jump\t// in\ntag_2:\n    /* \"Adder.sol\":437:444  result_ */\n  dup1\n    /* \"Adder.sol\":428:434  result */\n  0x00\n  dup1\n    /* \"Adder.sol\":428:444  result = result_ */\n  0x0100\n  exp\n  dup2\n  sload\n  dup2\n  0xffffffffffffffffffffffffffffffffffffffff\n  mul\n  not\n  and\n  swap1\n  dup4\n  0xffffffffffffffffffffffffffffffffffffffff\n  and\n  mul\n  or\n  swap1\n  sstore\n  pop\n    /* \"Adder.sol\":463:473  msg.sender */\n  caller\n    /* \"Adder.sol\":455:460  owner */\n  0x01\n  0x00\n    /* \"Adder.sol\":455:473  owner = msg.sender */\n  0x0100\n  exp\n  dup2\n  sload\n  dup2\n  0xffffffffffffffffffffffffffffffffffffffff\n  mul\n  not\n  and\n  swap1\n  dup4\n  0xffffffffffffffffffffffffffffffffffffffff\n  and\n  mul\n  or\n  swap1\n  sstore\n  pop\n    /* \"Adder.sol\":387:481  constructor(address result_){... */\n  pop\n    /* \"Adder.sol\":245:1342  contract Adder{... */\n  jump(tag_6)\n    /* \"#utility.yul\":88:205   */\ntag_8:\n    /* \"#utility.yul\":197:198   */\n  0x00\n    /* \"#utility.yul\":194:195   */\n  dup1\n    /* \"#utility.yul\":187:199   */\n  revert\n    /* \"#utility.yul\":334:460   */\ntag_10:\n    /* \"#utility.yul\":371:378   */\n  0x00\n    /* \"#utility.yul\":411:453   */\n  0xffffffffffffffffffffffffffffffffffffffff\n    /* \"#utility.yul\":404:409   */\n  dup3\n    /* \"#utility.yul\":400:454   */\n  and\n    /* \"#utility.yul\":389:454   */\n  swap1\n  pop\n    /* \"#utility.yul\":334:460   */\n  swap2\n  swap1\n  pop\n  jump\t// out\n    /* \"#utility.yul\":466:562   */\ntag_11:\n    /* \"#utility.yul\":503:510   */\n  0x00\n    /* \"#utility.yul\":532:556   */\n  tag_20\n    /* \"#utility.yul\":550:555   */\n  dup3\n    /* \"#utility.yul\":532:556   */\n  tag_10\n  jump\t// in\ntag_20:\n    /* \"#utility.yul\":521:556   */\n  swap1\n  pop\n    /* \"#utility.yul\":466:562   */\n  swap2\n  swap1\n  pop\n  jump\t// out\n    /* \"#utility.yul\":568:690   */\ntag_12:\n    /* \"#utility.yul\":641:665   */\n  tag_22\n    /* \"#utility.yul\":659:664   */\n  dup2\n    /* \"#utility.yul\":641:665   */\n  tag_11\n  jump\t// in\ntag_22:\n    /* \"#utility.yul\":634:639   */\n  dup2\n    /* \"#utility.yul\":631:666   */\n  eq\n    /* \"#utility.yul\":621:684   */\n  tag_23\n  jumpi\n    /* \"#utility.yul\":680:681   */\n  0x00\n    /* \"#utility.yul\":677:678   */\n  dup1\n    /* \"#utility.yul\":670:682   */\n  revert\n    /* \"#utility.yul\":621:684   */\ntag_23:\n    /* \"#utility.yul\":568:690   */\n  pop\n  jump\t// out\n    /* \"#utility.yul\":696:839   */\ntag_13:\n    /* \"#utility.yul\":753:758   */\n  0x00\n    /* \"#utility.yul\":784:790   */\n  dup2\n    /* \"#utility.yul\":778:791   */\n  mload\n    /* \"#utility.yul\":769:791   */\n  swap1\n  pop\n    /* \"#utility.yul\":800:833   */\n  tag_25\n    /* \"#utility.yul\":827:832   */\n  dup2\n    /* \"#utility.yul\":800:833   */\n  tag_12\n  jump\t// in\ntag_25:\n    /* \"#utility.yul\":696:839   */\n  swap3\n  swap2\n  pop\n  pop\n  jump\t// out\n    /* \"#utility.yul\":845:1196   */\ntag_3:\n    /* \"#utility.yul\":915:921   */\n  0x00\n    /* \"#utility.yul\":964:966   */\n  0x20\n    /* \"#utility.yul\":952:961   */\n  dup3\n    /* \"#utility.yul\":943:950   */\n  dup5\n    /* \"#utility.yul\":939:962   */\n  sub\n    /* \"#utility.yul\":935:967   */\n  slt\n    /* \"#utility.yul\":932:1051   */\n  iszero\n  tag_27\n  jumpi\n    /* \"#utility.yul\":970:1049   */\n  tag_28\n  tag_8\n  jump\t// in\ntag_28:\n    /* \"#utility.yul\":932:1051   */\ntag_27:\n    /* \"#utility.yul\":1090:1091   */\n  0x00\n    /* \"#utility.yul\":1115:1179   */\n  tag_29\n    /* \"#utility.yul\":1171:1178   */\n  dup5\n    /* \"#utility.yul\":1162:1168   */\n  dup3\n    /* \"#utility.yul\":1151:1160   */\n  dup6\n    /* \"#utility.yul\":1147:1169   */\n  add\n    /* \"#utility.yul\":1115:1179   */\n  tag_13\n  jump\t// in\ntag_29:\n    /* \"#utility.yul\":1105:1179   */\n  swap2\n  pop\n    /* \"#utility.yul\":1061:1189   */\n  pop\n    /* \"#utility.yul\":845:1196   */\n  swap3\n  swap2\n  pop\n  pop\n  jump\t// out\n    /* \"Adder.sol\":245:1342  contract Adder{... */\ntag_6:\n  dataSize(sub_0)\n  dup1\n  dataOffset(sub_0)\n  0x00\n  codecopy\n  0x00\n  return\nstop\n\nsub_0: assembly {\n        /* \"Adder.sol\":245:1342  contract Adder{... */\n      mstore(0x40, 0x80)\n      callvalue\n      dup1\n      iszero\n      tag_1\n      jumpi\n      0x00\n      dup1\n      revert\n    tag_1:\n      pop\n      jumpi(tag_2, lt(calldatasize, 0x04))\n      shr(0xe0, calldataload(0x00))\n      dup1\n      0x69fe0e2d\n      eq\n      tag_3\n      jumpi\n      dup1\n      0x8da5cb5b\n      eq\n      tag_4\n      jumpi\n      dup1\n      0xd3f3cd7b\n      eq\n      tag_5\n      jumpi\n      dup1\n      0xef9fc50b\n      eq\n      tag_6\n      jumpi\n    tag_2:\n      0x00\n      dup1\n      revert\n        /* \"Adder.sol\":1224:1337  function setFee(uint256 newFee_) external feeLimit(newFee_){... */\n    tag_3:\n      tag_7\n      0x04\n      dup1\n      calldatasize\n      sub\n      dup2\n      add\n      swap1\n      tag_8\n      swap2\n      swap1\n      tag_9\n      jump\t// in\n    tag_8:\n      tag_10\n      jump\t// in\n    tag_7:\n      stop\n        /* \"Adder.sol\":327:347  address public owner */\n    tag_4:\n      tag_11\n      tag_12\n      jump\t// in\n    tag_11:\n      mload(0x40)\n      tag_13\n      swap2\n      swap1\n      tag_14\n      jump\t// in\n    tag_13:\n      mload(0x40)\n      dup1\n      swap2\n      sub\n      swap1\n      return\n        /* \"Adder.sol\":1041:1209  function multiplyNumbers(uint256 num1_, uint256 num2_) external onlyMod{... */\n    tag_5:\n      tag_15\n      0x04\n      dup1\n      calldatasize\n      sub\n      dup2\n      add\n      swap1\n      tag_16\n      swap2\n      swap1\n      tag_17\n      jump\t// in\n    tag_16:\n      tag_18\n      jump\t// in\n    tag_15:\n      stop\n        /* \"Adder.sol\":857:1028  function addNumbers(uint256 num1_, uint256 num2_) external {... */\n    tag_6:\n      tag_19\n      0x04\n      dup1\n      calldatasize\n      sub\n      dup2\n      add\n      swap1\n      tag_20\n      swap2\n      swap1\n      tag_17\n      jump\t// in\n    tag_20:\n      tag_21\n      jump\t// in\n    tag_19:\n      stop\n        /* \"Adder.sol\":1224:1337  function setFee(uint256 newFee_) external feeLimit(newFee_){... */\n    tag_10:\n        /* \"Adder.sol\":1275:1282  newFee_ */\n      dup1\n        /* \"Adder.sol\":736:737  0 */\n      0x00\n        /* \"Adder.sol\":724:733  feeLimit_ */\n      dup2\n        /* \"Adder.sol\":724:737  feeLimit_ > 0 */\n      gt\n        /* \"Adder.sol\":724:756  feeLimit_ > 0 && feeLimit_ < 100 */\n      dup1\n      iszero\n      tag_23\n      jumpi\n      pop\n        /* \"Adder.sol\":753:756  100 */\n      0x64\n        /* \"Adder.sol\":741:750  feeLimit_ */\n      dup2\n        /* \"Adder.sol\":741:756  feeLimit_ < 100 */\n      lt\n        /* \"Adder.sol\":724:756  feeLimit_ > 0 && feeLimit_ < 100 */\n    tag_23:\n        /* \"Adder.sol\":716:791  require(feeLimit_ > 0 && feeLimit_ < 100, \"Fee must be between 1 and 100.\") */\n      tag_24\n      jumpi\n      mload(0x40)\n      0x08c379a000000000000000000000000000000000000000000000000000000000\n      dup2\n      mstore\n      0x04\n      add\n      tag_25\n      swap1\n      tag_26\n      jump\t// in\n    tag_25:\n      mload(0x40)\n      dup1\n      swap2\n      sub\n      swap1\n      revert\n    tag_24:\n        /* \"Adder.sol\":1304:1310  result */\n      0x00\n      dup1\n      sload\n      swap1\n      0x0100\n      exp\n      swap1\n      div\n      0xffffffffffffffffffffffffffffffffffffffff\n      and\n        /* \"Adder.sol\":1296:1318  IResult(result).setFee */\n      0xffffffffffffffffffffffffffffffffffffffff\n      and\n      0x69fe0e2d\n        /* \"Adder.sol\":1319:1326  newFee_ */\n      dup4\n        /* \"Adder.sol\":1296:1327  IResult(result).setFee(newFee_) */\n      mload(0x40)\n      dup3\n      0xffffffff\n      and\n      0xe0\n      shl\n      dup2\n      mstore\n      0x04\n      add\n      tag_28\n      swap2\n      swap1\n      tag_29\n      jump\t// in\n    tag_28:\n      0x00\n      mload(0x40)\n      dup1\n      dup4\n      sub\n      dup2\n      0x00\n      dup8\n      dup1\n      extcodesize\n      iszero\n      dup1\n      iszero\n      tag_30\n      jumpi\n      0x00\n      dup1\n      revert\n    tag_30:\n      pop\n      gas\n      call\n      iszero\n      dup1\n      iszero\n      tag_32\n      jumpi\n      returndatasize\n      0x00\n      dup1\n      returndatacopy\n      revert(0x00, returndatasize)\n    tag_32:\n      pop\n      pop\n      pop\n      pop\n        /* \"Adder.sol\":1224:1337  function setFee(uint256 newFee_) external feeLimit(newFee_){... */\n      pop\n      pop\n      jump\t// out\n        /* \"Adder.sol\":327:347  address public owner */\n    tag_12:\n      0x01\n      0x00\n      swap1\n      sload\n      swap1\n      0x0100\n      exp\n      swap1\n      div\n      0xffffffffffffffffffffffffffffffffffffffff\n      and\n      dup2\n      jump\t// out\n        /* \"Adder.sol\":1041:1209  function multiplyNumbers(uint256 num1_, uint256 num2_) external onlyMod{... */\n    tag_18:\n        /* \"Adder.sol\":563:568  owner */\n      0x01\n      0x00\n      swap1\n      sload\n      swap1\n      0x0100\n      exp\n      swap1\n      div\n      0xffffffffffffffffffffffffffffffffffffffff\n      and\n        /* \"Adder.sol\":549:568  msg.sender != owner */\n      0xffffffffffffffffffffffffffffffffffffffff\n      and\n        /* \"Adder.sol\":549:559  msg.sender */\n      caller\n        /* \"Adder.sol\":549:568  msg.sender != owner */\n      0xffffffffffffffffffffffffffffffffffffffff\n      and\n      eq\n        /* \"Adder.sol\":545:641  if (msg.sender != owner) revert SenderNotMod(\"Only owner can execute this function\", msg.sender) */\n      tag_34\n      jumpi\n        /* \"Adder.sol\":630:640  msg.sender */\n      caller\n        /* \"Adder.sol\":577:641  SenderNotMod(\"Only owner can execute this function\", msg.sender) */\n      mload(0x40)\n      0x439e540500000000000000000000000000000000000000000000000000000000\n      dup2\n      mstore\n      0x04\n      add\n      tag_35\n      swap2\n      swap1\n      tag_36\n      jump\t// in\n    tag_35:\n      mload(0x40)\n      dup1\n      swap2\n      sub\n      swap1\n      revert\n        /* \"Adder.sol\":545:641  if (msg.sender != owner) revert SenderNotMod(\"Only owner can execute this function\", msg.sender) */\n    tag_34:\n        /* \"Adder.sol\":1144:1149  num2_ */\n      dup1\n        /* \"Adder.sol\":1136:1141  num1_ */\n      dup3\n        /* \"Adder.sol\":1136:1149  num1_ * num2_ */\n      tag_38\n      swap2\n      swap1\n      tag_39\n      jump\t// in\n    tag_38:\n        /* \"Adder.sol\":1125:1133  opResult */\n      0x02\n        /* \"Adder.sol\":1125:1149  opResult = num1_ * num2_ */\n      dup2\n      swap1\n      sstore\n      pop\n        /* \"Adder.sol\":1170:1176  result */\n      0x00\n      dup1\n      sload\n      swap1\n      0x0100\n      exp\n      swap1\n      div\n      0xffffffffffffffffffffffffffffffffffffffff\n      and\n        /* \"Adder.sol\":1162:1187  IResult(result).setResult */\n      0xffffffffffffffffffffffffffffffffffffffff\n      and\n      0x812448a5\n        /* \"Adder.sol\":1188:1196  opResult */\n      sload(0x02)\n        /* \"Adder.sol\":1162:1197  IResult(result).setResult(opResult) */\n      mload(0x40)\n      dup3\n      0xffffffff\n      and\n      0xe0\n      shl\n      dup2\n      mstore\n      0x04\n      add\n      tag_40\n      swap2\n      swap1\n      tag_29\n      jump\t// in\n    tag_40:\n      0x00\n      mload(0x40)\n      dup1\n      dup4\n      sub\n      dup2\n      0x00\n      dup8\n      dup1\n      extcodesize\n      iszero\n      dup1\n      iszero\n      tag_41\n      jumpi\n      0x00\n      dup1\n      revert\n    tag_41:\n      pop\n      gas\n      call\n      iszero\n      dup1\n      iszero\n      tag_43\n      jumpi\n      returndatasize\n      0x00\n      dup1\n      returndatacopy\n      revert(0x00, returndatasize)\n    tag_43:\n      pop\n      pop\n      pop\n      pop\n        /* \"Adder.sol\":1041:1209  function multiplyNumbers(uint256 num1_, uint256 num2_) external onlyMod{... */\n      pop\n      pop\n      jump\t// out\n        /* \"Adder.sol\":857:1028  function addNumbers(uint256 num1_, uint256 num2_) external {... */\n    tag_21:\n        /* \"Adder.sol\":956:961  num2_ */\n      dup1\n        /* \"Adder.sol\":948:953  num1_ */\n      dup3\n        /* \"Adder.sol\":948:961  num1_ + num2_ */\n      tag_45\n      swap2\n      swap1\n      tag_46\n      jump\t// in\n    tag_45:\n        /* \"Adder.sol\":937:945  opResult */\n      0x02\n        /* \"Adder.sol\":937:961  opResult = num1_ + num2_ */\n      dup2\n      swap1\n      sstore\n      pop\n        /* \"Adder.sol\":982:988  result */\n      0x00\n      dup1\n      sload\n      swap1\n      0x0100\n      exp\n      swap1\n      div\n      0xffffffffffffffffffffffffffffffffffffffff\n      and\n        /* \"Adder.sol\":974:999  IResult(result).setResult */\n      0xffffffffffffffffffffffffffffffffffffffff\n      and\n      0x812448a5\n        /* \"Adder.sol\":1000:1008  opResult */\n      sload(0x02)\n        /* \"Adder.sol\":974:1009  IResult(result).setResult(opResult) */\n      mload(0x40)\n      dup3\n      0xffffffff\n      and\n      0xe0\n      shl\n      dup2\n      mstore\n      0x04\n      add\n      tag_47\n      swap2\n      swap1\n      tag_29\n      jump\t// in\n    tag_47:\n      0x00\n      mload(0x40)\n      dup1\n      dup4\n      sub\n      dup2\n      0x00\n      dup8\n      dup1\n      extcodesize\n      iszero\n      dup1\n      iszero\n      tag_48\n      jumpi\n      0x00\n      dup1\n      revert\n    tag_48:\n      pop\n      gas\n      call\n      iszero\n      dup1\n      iszero\n      tag_50\n      jumpi\n      returndatasize\n      0x00\n      dup1\n      returndatacopy\n      revert(0x00, returndatasize)\n    tag_50:\n      pop\n      pop\n      pop\n      pop\n        /* \"Adder.sol\":857:1028  function addNumbers(uint256 num1_, uint256 num2_) external {... */\n      pop\n      pop\n      jump\t// out\n        /* \"#utility.yul\":88:205   */\n    tag_52:\n        /* \"#utility.yul\":197:198   */\n      0x00\n        /* \"#utility.yul\":194:195   */\n      dup1\n        /* \"#utility.yul\":187:199   */\n      revert\n        /* \"#utility.yul\":334:411   */\n    tag_54:\n        /* \"#utility.yul\":371:378   */\n      0x00\n        /* \"#utility.yul\":400:405   */\n      dup2\n        /* \"#utility.yul\":389:405   */\n      swap1\n      pop\n        /* \"#utility.yul\":334:411   */\n      swap2\n      swap1\n      pop\n      jump\t// out\n        /* \"#utility.yul\":417:539   */\n    tag_55:\n        /* \"#utility.yul\":490:514   */\n      tag_73\n        /* \"#utility.yul\":508:513   */\n      dup2\n        /* \"#utility.yul\":490:514   */\n      tag_54\n      jump\t// in\n    tag_73:\n        /* \"#utility.yul\":483:488   */\n      dup2\n        /* \"#utility.yul\":480:515   */\n      eq\n        /* \"#utility.yul\":470:533   */\n      tag_74\n      jumpi\n        /* \"#utility.yul\":529:530   */\n      0x00\n        /* \"#utility.yul\":526:527   */\n      dup1\n        /* \"#utility.yul\":519:531   */\n      revert\n        /* \"#utility.yul\":470:533   */\n    tag_74:\n        /* \"#utility.yul\":417:539   */\n      pop\n      jump\t// out\n        /* \"#utility.yul\":545:684   */\n    tag_56:\n        /* \"#utility.yul\":591:596   */\n      0x00\n        /* \"#utility.yul\":629:635   */\n      dup2\n        /* \"#utility.yul\":616:636   */\n      calldataload\n        /* \"#utility.yul\":607:636   */\n      swap1\n      pop\n        /* \"#utility.yul\":645:678   */\n      tag_76\n        /* \"#utility.yul\":672:677   */\n      dup2\n        /* \"#utility.yul\":645:678   */\n      tag_55\n      jump\t// in\n    tag_76:\n        /* \"#utility.yul\":545:684   */\n      swap3\n      swap2\n      pop\n      pop\n      jump\t// out\n        /* \"#utility.yul\":690:1019   */\n    tag_9:\n        /* \"#utility.yul\":749:755   */\n      0x00\n        /* \"#utility.yul\":798:800   */\n      0x20\n        /* \"#utility.yul\":786:795   */\n      dup3\n        /* \"#utility.yul\":777:784   */\n      dup5\n        /* \"#utility.yul\":773:796   */\n      sub\n        /* \"#utility.yul\":769:801   */\n      slt\n        /* \"#utility.yul\":766:885   */\n      iszero\n      tag_78\n      jumpi\n        /* \"#utility.yul\":804:883   */\n      tag_79\n      tag_52\n      jump\t// in\n    tag_79:\n        /* \"#utility.yul\":766:885   */\n    tag_78:\n        /* \"#utility.yul\":924:925   */\n      0x00\n        /* \"#utility.yul\":949:1002   */\n      tag_80\n        /* \"#utility.yul\":994:1001   */\n      dup5\n        /* \"#utility.yul\":985:991   */\n      dup3\n        /* \"#utility.yul\":974:983   */\n      dup6\n        /* \"#utility.yul\":970:992   */\n      add\n        /* \"#utility.yul\":949:1002   */\n      tag_56\n      jump\t// in\n    tag_80:\n        /* \"#utility.yul\":939:1002   */\n      swap2\n      pop\n        /* \"#utility.yul\":895:1012   */\n      pop\n        /* \"#utility.yul\":690:1019   */\n      swap3\n      swap2\n      pop\n      pop\n      jump\t// out\n        /* \"#utility.yul\":1025:1151   */\n    tag_57:\n        /* \"#utility.yul\":1062:1069   */\n      0x00\n        /* \"#utility.yul\":1102:1144   */\n      0xffffffffffffffffffffffffffffffffffffffff\n        /* \"#utility.yul\":1095:1100   */\n      dup3\n        /* \"#utility.yul\":1091:1145   */\n      and\n        /* \"#utility.yul\":1080:1145   */\n      swap1\n      pop\n        /* \"#utility.yul\":1025:1151   */\n      swap2\n      swap1\n      pop\n      jump\t// out\n        /* \"#utility.yul\":1157:1253   */\n    tag_58:\n        /* \"#utility.yul\":1194:1201   */\n      0x00\n        /* \"#utility.yul\":1223:1247   */\n      tag_83\n        /* \"#utility.yul\":1241:1246   */\n      dup3\n        /* \"#utility.yul\":1223:1247   */\n      tag_57\n      jump\t// in\n    tag_83:\n        /* \"#utility.yul\":1212:1247   */\n      swap1\n      pop\n        /* \"#utility.yul\":1157:1253   */\n      swap2\n      swap1\n      pop\n      jump\t// out\n        /* \"#utility.yul\":1259:1377   */\n    tag_59:\n        /* \"#utility.yul\":1346:1370   */\n      tag_85\n        /* \"#utility.yul\":1364:1369   */\n      dup2\n        /* \"#utility.yul\":1346:1370   */\n      tag_58\n      jump\t// in\n    tag_85:\n        /* \"#utility.yul\":1341:1344   */\n      dup3\n        /* \"#utility.yul\":1334:1371   */\n      mstore\n        /* \"#utility.yul\":1259:1377   */\n      pop\n      pop\n      jump\t// out\n        /* \"#utility.yul\":1383:1605   */\n    tag_14:\n        /* \"#utility.yul\":1476:1480   */\n      0x00\n        /* \"#utility.yul\":1514:1516   */\n      0x20\n        /* \"#utility.yul\":1503:1512   */\n      dup3\n        /* \"#utility.yul\":1499:1517   */\n      add\n        /* \"#utility.yul\":1491:1517   */\n      swap1\n      pop\n        /* \"#utility.yul\":1527:1598   */\n      tag_87\n        /* \"#utility.yul\":1595:1596   */\n      0x00\n        /* \"#utility.yul\":1584:1593   */\n      dup4\n        /* \"#utility.yul\":1580:1597   */\n      add\n        /* \"#utility.yul\":1571:1577   */\n      dup5\n        /* \"#utility.yul\":1527:1598   */\n      tag_59\n      jump\t// in\n    tag_87:\n        /* \"#utility.yul\":1383:1605   */\n      swap3\n      swap2\n      pop\n      pop\n      jump\t// out\n        /* \"#utility.yul\":1611:2085   */\n    tag_17:\n        /* \"#utility.yul\":1679:1685   */\n      0x00\n        /* \"#utility.yul\":1687:1693   */\n      dup1\n        /* \"#utility.yul\":1736:1738   */\n      0x40\n        /* \"#utility.yul\":1724:1733   */\n      dup4\n        /* \"#utility.yul\":1715:1722   */\n      dup6\n        /* \"#utility.yul\":1711:1734   */\n      sub\n        /* \"#utility.yul\":1707:1739   */\n      slt\n        /* \"#utility.yul\":1704:1823   */\n      iszero\n      tag_89\n      jumpi\n        /* \"#utility.yul\":1742:1821   */\n      tag_90\n      tag_52\n      jump\t// in\n    tag_90:\n        /* \"#utility.yul\":1704:1823   */\n    tag_89:\n        /* \"#utility.yul\":1862:1863   */\n      0x00\n        /* \"#utility.yul\":1887:1940   */\n      tag_91\n        /* \"#utility.yul\":1932:1939   */\n      dup6\n        /* \"#utility.yul\":1923:1929   */\n      dup3\n        /* \"#utility.yul\":1912:1921   */\n      dup7\n        /* \"#utility.yul\":1908:1930   */\n      add\n        /* \"#utility.yul\":1887:1940   */\n      tag_56\n      jump\t// in\n    tag_91:\n        /* \"#utility.yul\":1877:1940   */\n      swap3\n      pop\n        /* \"#utility.yul\":1833:1950   */\n      pop\n        /* \"#utility.yul\":1989:1991   */\n      0x20\n        /* \"#utility.yul\":2015:2068   */\n      tag_92\n        /* \"#utility.yul\":2060:2067   */\n      dup6\n        /* \"#utility.yul\":2051:2057   */\n      dup3\n        /* \"#utility.yul\":2040:2049   */\n      dup7\n        /* \"#utility.yul\":2036:2058   */\n      add\n        /* \"#utility.yul\":2015:2068   */\n      tag_56\n      jump\t// in\n    tag_92:\n        /* \"#utility.yul\":2005:2068   */\n      swap2\n      pop\n        /* \"#utility.yul\":1960:2078   */\n      pop\n        /* \"#utility.yul\":1611:2085   */\n      swap3\n      pop\n      swap3\n      swap1\n      pop\n      jump\t// out\n        /* \"#utility.yul\":2091:2260   */\n    tag_60:\n        /* \"#utility.yul\":2175:2186   */\n      0x00\n        /* \"#utility.yul\":2209:2215   */\n      dup3\n        /* \"#utility.yul\":2204:2207   */\n      dup3\n        /* \"#utility.yul\":2197:2216   */\n      mstore\n        /* \"#utility.yul\":2249:2253   */\n      0x20\n        /* \"#utility.yul\":2244:2247   */\n      dup3\n        /* \"#utility.yul\":2240:2254   */\n      add\n        /* \"#utility.yul\":2225:2254   */\n      swap1\n      pop\n        /* \"#utility.yul\":2091:2260   */\n      swap3\n      swap2\n      pop\n      pop\n      jump\t// out\n        /* \"#utility.yul\":2266:2446   */\n    tag_61:\n        /* \"#utility.yul\":2406:2438   */\n      0x466565206d757374206265206265747765656e203120616e64203130302e0000\n        /* \"#utility.yul\":2402:2403   */\n      0x00\n        /* \"#utility.yul\":2394:2400   */\n      dup3\n        /* \"#utility.yul\":2390:2404   */\n      add\n        /* \"#utility.yul\":2383:2439   */\n      mstore\n        /* \"#utility.yul\":2266:2446   */\n      pop\n      jump\t// out\n        /* \"#utility.yul\":2452:2818   */\n    tag_62:\n        /* \"#utility.yul\":2594:2597   */\n      0x00\n        /* \"#utility.yul\":2615:2682   */\n      tag_96\n        /* \"#utility.yul\":2679:2681   */\n      0x1e\n        /* \"#utility.yul\":2674:2677   */\n      dup4\n        /* \"#utility.yul\":2615:2682   */\n      tag_60\n      jump\t// in\n    tag_96:\n        /* \"#utility.yul\":2608:2682   */\n      swap2\n      pop\n        /* \"#utility.yul\":2691:2784   */\n      tag_97\n        /* \"#utility.yul\":2780:2783   */\n      dup3\n        /* \"#utility.yul\":2691:2784   */\n      tag_61\n      jump\t// in\n    tag_97:\n        /* \"#utility.yul\":2809:2811   */\n      0x20\n        /* \"#utility.yul\":2804:2807   */\n      dup3\n        /* \"#utility.yul\":2800:2812   */\n      add\n        /* \"#utility.yul\":2793:2812   */\n      swap1\n      pop\n        /* \"#utility.yul\":2452:2818   */\n      swap2\n      swap1\n      pop\n      jump\t// out\n        /* \"#utility.yul\":2824:3243   */\n    tag_26:\n        /* \"#utility.yul\":2990:2994   */\n      0x00\n        /* \"#utility.yul\":3028:3030   */\n      0x20\n        /* \"#utility.yul\":3017:3026   */\n      dup3\n        /* \"#utility.yul\":3013:3031   */\n      add\n        /* \"#utility.yul\":3005:3031   */\n      swap1\n      pop\n        /* \"#utility.yul\":3077:3086   */\n      dup2\n        /* \"#utility.yul\":3071:3075   */\n      dup2\n        /* \"#utility.yul\":3067:3087   */\n      sub\n        /* \"#utility.yul\":3063:3064   */\n      0x00\n        /* \"#utility.yul\":3052:3061   */\n      dup4\n        /* \"#utility.yul\":3048:3065   */\n      add\n        /* \"#utility.yul\":3041:3088   */\n      mstore\n        /* \"#utility.yul\":3105:3236   */\n      tag_99\n        /* \"#utility.yul\":3231:3235   */\n      dup2\n        /* \"#utility.yul\":3105:3236   */\n      tag_62\n      jump\t// in\n    tag_99:\n        /* \"#utility.yul\":3097:3236   */\n      swap1\n      pop\n        /* \"#utility.yul\":2824:3243   */\n      swap2\n      swap1\n      pop\n      jump\t// out\n        /* \"#utility.yul\":3249:3367   */\n    tag_63:\n        /* \"#utility.yul\":3336:3360   */\n      tag_101\n        /* \"#utility.yul\":3354:3359   */\n      dup2\n        /* \"#utility.yul\":3336:3360   */\n      tag_54\n      jump\t// in\n    tag_101:\n        /* \"#utility.yul\":3331:3334   */\n      dup3\n        /* \"#utility.yul\":3324:3361   */\n      mstore\n        /* \"#utility.yul\":3249:3367   */\n      pop\n      pop\n      jump\t// out\n        /* \"#utility.yul\":3373:3595   */\n    tag_29:\n        /* \"#utility.yul\":3466:3470   */\n      0x00\n        /* \"#utility.yul\":3504:3506   */\n      0x20\n        /* \"#utility.yul\":3493:3502   */\n      dup3\n        /* \"#utility.yul\":3489:3507   */\n      add\n        /* \"#utility.yul\":3481:3507   */\n      swap1\n      pop\n        /* \"#utility.yul\":3517:3588   */\n      tag_103\n        /* \"#utility.yul\":3585:3586   */\n      0x00\n        /* \"#utility.yul\":3574:3583   */\n      dup4\n        /* \"#utility.yul\":3570:3587   */\n      add\n        /* \"#utility.yul\":3561:3567   */\n      dup5\n        /* \"#utility.yul\":3517:3588   */\n      tag_63\n      jump\t// in\n    tag_103:\n        /* \"#utility.yul\":3373:3595   */\n      swap3\n      swap2\n      pop\n      pop\n      jump\t// out\n        /* \"#utility.yul\":3601:3824   */\n    tag_64:\n        /* \"#utility.yul\":3741:3775   */\n      0x4f6e6c79206f776e65722063616e206578656375746520746869732066756e63\n        /* \"#utility.yul\":3737:3738   */\n      0x00\n        /* \"#utility.yul\":3729:3735   */\n      dup3\n        /* \"#utility.yul\":3725:3739   */\n      add\n        /* \"#utility.yul\":3718:3776   */\n      mstore\n        /* \"#utility.yul\":3810:3816   */\n      0x74696f6e00000000000000000000000000000000000000000000000000000000\n        /* \"#utility.yul\":3805:3807   */\n      0x20\n        /* \"#utility.yul\":3797:3803   */\n      dup3\n        /* \"#utility.yul\":3793:3808   */\n      add\n        /* \"#utility.yul\":3786:3817   */\n      mstore\n        /* \"#utility.yul\":3601:3824   */\n      pop\n      jump\t// out\n        /* \"#utility.yul\":3830:4196   */\n    tag_65:\n        /* \"#utility.yul\":3972:3975   */\n      0x00\n        /* \"#utility.yul\":3993:4060   */\n      tag_106\n        /* \"#utility.yul\":4057:4059   */\n      0x24\n        /* \"#utility.yul\":4052:4055   */\n      dup4\n        /* \"#utility.yul\":3993:4060   */\n      tag_60\n      jump\t// in\n    tag_106:\n        /* \"#utility.yul\":3986:4060   */\n      swap2\n      pop\n        /* \"#utility.yul\":4069:4162   */\n      tag_107\n        /* \"#utility.yul\":4158:4161   */\n      dup3\n        /* \"#utility.yul\":4069:4162   */\n      tag_64\n      jump\t// in\n    tag_107:\n        /* \"#utility.yul\":4187:4189   */\n      0x40\n        /* \"#utility.yul\":4182:4185   */\n      dup3\n        /* \"#utility.yul\":4178:4190   */\n      add\n        /* \"#utility.yul\":4171:4190   */\n      swap1\n      pop\n        /* \"#utility.yul\":3830:4196   */\n      swap2\n      swap1\n      pop\n      jump\t// out\n        /* \"#utility.yul\":4202:4731   */\n    tag_36:\n        /* \"#utility.yul\":4396:4400   */\n      0x00\n        /* \"#utility.yul\":4434:4436   */\n      0x40\n        /* \"#utility.yul\":4423:4432   */\n      dup3\n        /* \"#utility.yul\":4419:4437   */\n      add\n        /* \"#utility.yul\":4411:4437   */\n      swap1\n      pop\n        /* \"#utility.yul\":4483:4492   */\n      dup2\n        /* \"#utility.yul\":4477:4481   */\n      dup2\n        /* \"#utility.yul\":4473:4493   */\n      sub\n        /* \"#utility.yul\":4469:4470   */\n      0x00\n        /* \"#utility.yul\":4458:4467   */\n      dup4\n        /* \"#utility.yul\":4454:4471   */\n      add\n        /* \"#utility.yul\":4447:4494   */\n      mstore\n        /* \"#utility.yul\":4511:4642   */\n      tag_109\n        /* \"#utility.yul\":4637:4641   */\n      dup2\n        /* \"#utility.yul\":4511:4642   */\n      tag_65\n      jump\t// in\n    tag_109:\n        /* \"#utility.yul\":4503:4642   */\n      swap1\n      pop\n        /* \"#utility.yul\":4652:4724   */\n      tag_110\n        /* \"#utility.yul\":4720:4722   */\n      0x20\n        /* \"#utility.yul\":4709:4718   */\n      dup4\n        /* \"#utility.yul\":4705:4723   */\n      add\n        /* \"#utility.yul\":4696:4702   */\n      dup5\n        /* \"#utility.yul\":4652:4724   */\n      tag_59\n      jump\t// in\n    tag_110:\n        /* \"#utility.yul\":4202:4731   */\n      swap3\n      swap2\n      pop\n      pop\n      jump\t// out\n        /* \"#utility.yul\":4737:4917   */\n    tag_66:\n        /* \"#utility.yul\":4785:4862   */\n      0x4e487b7100000000000000000000000000000000000000000000000000000000\n        /* \"#utility.yul\":4782:4783   */\n      0x00\n        /* \"#utility.yul\":4775:4863   */\n      mstore\n        /* \"#utility.yul\":4882:4886   */\n      0x11\n        /* \"#utility.yul\":4879:4880   */\n      0x04\n        /* \"#utility.yul\":4872:4887   */\n      mstore\n        /* \"#utility.yul\":4906:4910   */\n      0x24\n        /* \"#utility.yul\":4903:4904   */\n      0x00\n        /* \"#utility.yul\":4896:4911   */\n      revert\n        /* \"#utility.yul\":4923:5333   */\n    tag_39:\n        /* \"#utility.yul\":4963:4970   */\n      0x00\n        /* \"#utility.yul\":4986:5006   */\n      tag_113\n        /* \"#utility.yul\":5004:5005   */\n      dup3\n        /* \"#utility.yul\":4986:5006   */\n      tag_54\n      jump\t// in\n    tag_113:\n        /* \"#utility.yul\":4981:5006   */\n      swap2\n      pop\n        /* \"#utility.yul\":5020:5040   */\n      tag_114\n        /* \"#utility.yul\":5038:5039   */\n      dup4\n        /* \"#utility.yul\":5020:5040   */\n      tag_54\n      jump\t// in\n    tag_114:\n        /* \"#utility.yul\":5015:5040   */\n      swap3\n      pop\n        /* \"#utility.yul\":5075:5076   */\n      dup3\n        /* \"#utility.yul\":5072:5073   */\n      dup3\n        /* \"#utility.yul\":5068:5077   */\n      mul\n        /* \"#utility.yul\":5097:5127   */\n      tag_115\n        /* \"#utility.yul\":5115:5126   */\n      dup2\n        /* \"#utility.yul\":5097:5127   */\n      tag_54\n      jump\t// in\n    tag_115:\n        /* \"#utility.yul\":5086:5127   */\n      swap2\n      pop\n        /* \"#utility.yul\":5276:5277   */\n      dup3\n        /* \"#utility.yul\":5267:5274   */\n      dup3\n        /* \"#utility.yul\":5263:5278   */\n      div\n        /* \"#utility.yul\":5260:5261   */\n      dup5\n        /* \"#utility.yul\":5257:5279   */\n      eq\n        /* \"#utility.yul\":5237:5238   */\n      dup4\n        /* \"#utility.yul\":5230:5239   */\n      iszero\n        /* \"#utility.yul\":5210:5293   */\n      or\n        /* \"#utility.yul\":5187:5326   */\n      tag_116\n      jumpi\n        /* \"#utility.yul\":5306:5324   */\n      tag_117\n      tag_66\n      jump\t// in\n    tag_117:\n        /* \"#utility.yul\":5187:5326   */\n    tag_116:\n        /* \"#utility.yul\":4971:5333   */\n      pop\n        /* \"#utility.yul\":4923:5333   */\n      swap3\n      swap2\n      pop\n      pop\n      jump\t// out\n        /* \"#utility.yul\":5339:5530   */\n    tag_46:\n        /* \"#utility.yul\":5379:5382   */\n      0x00\n        /* \"#utility.yul\":5398:5418   */\n      tag_119\n        /* \"#utility.yul\":5416:5417   */\n      dup3\n        /* \"#utility.yul\":5398:5418   */\n      tag_54\n      jump\t// in\n    tag_119:\n        /* \"#utility.yul\":5393:5418   */\n      swap2\n      pop\n        /* \"#utility.yul\":5432:5452   */\n      tag_120\n        /* \"#utility.yul\":5450:5451   */\n      dup4\n        /* \"#utility.yul\":5432:5452   */\n      tag_54\n      jump\t// in\n    tag_120:\n        /* \"#utility.yul\":5427:5452   */\n      swap3\n      pop\n        /* \"#utility.yul\":5475:5476   */\n      dup3\n        /* \"#utility.yul\":5472:5473   */\n      dup3\n        /* \"#utility.yul\":5468:5477   */\n      add\n        /* \"#utility.yul\":5461:5477   */\n      swap1\n      pop\n        /* \"#utility.yul\":5496:5499   */\n      dup1\n        /* \"#utility.yul\":5493:5494   */\n      dup3\n        /* \"#utility.yul\":5490:5500   */\n      gt\n        /* \"#utility.yul\":5487:5523   */\n      iszero\n      tag_121\n      jumpi\n        /* \"#utility.yul\":5503:5521   */\n      tag_122\n      tag_66\n      jump\t// in\n    tag_122:\n        /* \"#utility.yul\":5487:5523   */\n    tag_121:\n        /* \"#utility.yul\":5339:5530   */\n      swap3\n      swap2\n      pop\n      pop\n      jump\t// out\n\n    auxdata: 0xa2646970667358221220d74513f3efe605be6e6fa85b84ee72bbd5102850e6443cca1b30c764a9e1d96264736f6c634300081a0033\n}\n",
				"bytecode": {
					"linkReferences": {},
					"object": "608060405234801561000f575f80fd5b506040516107df3803806107df83398181016040528101906100319190610114565b805f806101000a81548173ffffffffffffffffffffffffffffffffffffffff021916908373ffffffffffffffffffffffffffffffffffffffff1602179055503360015f6101000a81548173ffffffffffffffffffffffffffffffffffffffff021916908373ffffffffffffffffffffffffffffffffffffffff1602179055505061013f565b5f80fd5b5f73ffffffffffffffffffffffffffffffffffffffff82169050919050565b5f6100e3826100ba565b9050919050565b6100f3816100d9565b81146100fd575f80fd5b50565b5f8151905061010e816100ea565b92915050565b5f60208284031215610129576101286100b6565b5b5f61013684828501610100565b91505092915050565b6106938061014c5f395ff3fe608060405234801561000f575f80fd5b506004361061004a575f3560e01c806369fe0e2d1461004e5780638da5cb5b1461006a578063d3f3cd7b14610088578063ef9fc50b146100a4575b5f80fd5b610068600480360381019061006391906103bf565b6100c0565b005b610072610198565b60405161007f9190610429565b60405180910390f35b6100a2600480360381019061009d9190610442565b6101bd565b005b6100be60048036038101906100b99190610442565b6102eb565b005b805f811180156100d05750606481105b61010f576040517f08c379a0000000000000000000000000000000000000000000000000000000008152600401610106906104da565b60405180910390fd5b5f8054906101000a900473ffffffffffffffffffffffffffffffffffffffff1673ffffffffffffffffffffffffffffffffffffffff166369fe0e2d836040518263ffffffff1660e01b81526004016101679190610507565b5f604051808303815f87803b15801561017e575f80fd5b505af1158015610190573d5f803e3d5ffd5b505050505050565b60015f9054906101000a900473ffffffffffffffffffffffffffffffffffffffff1681565b60015f9054906101000a900473ffffffffffffffffffffffffffffffffffffffff1673ffffffffffffffffffffffffffffffffffffffff163373ffffffffffffffffffffffffffffffffffffffff161461024e57336040517f439e54050000000000000000000000000000000000000000000000000000000081526004016102459190610590565b60405180910390fd5b808261025a91906105e9565b6002819055505f8054906101000a900473ffffffffffffffffffffffffffffffffffffffff1673ffffffffffffffffffffffffffffffffffffffff1663812448a56002546040518263ffffffff1660e01b81526004016102ba9190610507565b5f604051808303815f87803b1580156102d1575f80fd5b505af11580156102e3573d5f803e3d5ffd5b505050505050565b80826102f7919061062a565b6002819055505f8054906101000a900473ffffffffffffffffffffffffffffffffffffffff1673ffffffffffffffffffffffffffffffffffffffff1663812448a56002546040518263ffffffff1660e01b81526004016103579190610507565b5f604051808303815f87803b15801561036e575f80fd5b505af1158015610380573d5f803e3d5ffd5b505050505050565b5f80fd5b5f819050919050565b61039e8161038c565b81146103a8575f80fd5b50565b5f813590506103b981610395565b92915050565b5f602082840312156103d4576103d3610388565b5b5f6103e1848285016103ab565b91505092915050565b5f73ffffffffffffffffffffffffffffffffffffffff82169050919050565b5f610413826103ea565b9050919050565b61042381610409565b82525050565b5f60208201905061043c5f83018461041a565b92915050565b5f806040838503121561045857610457610388565b5b5f610465858286016103ab565b9250506020610476858286016103ab565b9150509250929050565b5f82825260208201905092915050565b7f466565206d757374206265206265747765656e203120616e64203130302e00005f82015250565b5f6104c4601e83610480565b91506104cf82610490565b602082019050919050565b5f6020820190508181035f8301526104f1816104b8565b9050919050565b6105018161038c565b82525050565b5f60208201905061051a5f8301846104f8565b92915050565b7f4f6e6c79206f776e65722063616e206578656375746520746869732066756e635f8201527f74696f6e00000000000000000000000000000000000000000000000000000000602082015250565b5f61057a602483610480565b915061058582610520565b604082019050919050565b5f6040820190508181035f8301526105a78161056e565b90506105b6602083018461041a565b92915050565b7f4e487b71000000000000000000000000000000000000000000000000000000005f52601160045260245ffd5b5f6105f38261038c565b91506105fe8361038c565b925082820261060c8161038c565b91508282048414831517610623576106226105bc565b5b5092915050565b5f6106348261038c565b915061063f8361038c565b9250828201905080821115610657576106566105bc565b5b9291505056fea2646970667358221220d74513f3efe605be6e6fa85b84ee72bbd5102850e6443cca1b30c764a9e1d96264736f6c634300081a0033",
					"opcodes": "PUSH1 0x80 PUSH1 0x40 MSTORE CALLVALUE DUP1 ISZERO PUSH2 0xF JUMPI PUSH0 DUP1 REVERT JUMPDEST POP PUSH1 0x40 MLOAD PUSH2 0x7DF CODESIZE SUB DUP1 PUSH2 0x7DF DUP4 CODECOPY DUP2 DUP2 ADD PUSH1 0x40 MSTORE DUP2 ADD SWAP1 PUSH2 0x31 SWAP2 SWAP1 PUSH2 0x114 JUMP JUMPDEST DUP1 PUSH0 DUP1 PUSH2 0x100 EXP DUP2 SLOAD DUP2 PUSH20 0xFFFFFFFFFFFFFFFFFFFFFFFFFFFFFFFFFFFFFFFF MUL NOT AND SWAP1 DUP4 PUSH20 0xFFFFFFFFFFFFFFFFFFFFFFFFFFFFFFFFFFFFFFFF AND MUL OR SWAP1 SSTORE POP CALLER PUSH1 0x1 PUSH0 PUSH2 0x100 EXP DUP2 SLOAD DUP2 PUSH20 0xFFFFFFFFFFFFFFFFFFFFFFFFFFFFFFFFFFFFFFFF MUL NOT AND SWAP1 DUP4 PUSH20 0xFFFFFFFFFFFFFFFFFFFFFFFFFFFFFFFFFFFFFFFF AND MUL OR SWAP1 SSTORE POP POP PUSH2 0x13F JUMP JUMPDEST PUSH0 DUP1 REVERT JUMPDEST PUSH0 PUSH20 0xFFFFFFFFFFFFFFFFFFFFFFFFFFFFFFFFFFFFFFFF DUP3 AND SWAP1 POP SWAP2 SWAP1 POP JUMP JUMPDEST PUSH0 PUSH2 0xE3 DUP3 PUSH2 0xBA JUMP JUMPDEST SWAP1 POP SWAP2 SWAP1 POP JUMP JUMPDEST PUSH2 0xF3 DUP2 PUSH2 0xD9 JUMP JUMPDEST DUP2 EQ PUSH2 0xFD JUMPI PUSH0 DUP1 REVERT JUMPDEST POP JUMP JUMPDEST PUSH0 DUP2 MLOAD SWAP1 POP PUSH2 0x10E DUP2 PUSH2 0xEA JUMP JUMPDEST SWAP3 SWAP2 POP POP JUMP JUMPDEST PUSH0 PUSH1 0x20 DUP3 DUP5 SUB SLT ISZERO PUSH2 0x129 JUMPI PUSH2 0x128 PUSH2 0xB6 JUMP JUMPDEST JUMPDEST PUSH0 PUSH2 0x136 DUP5 DUP3 DUP6 ADD PUSH2 0x100 JUMP JUMPDEST SWAP2 POP POP SWAP3 SWAP2 POP POP JUMP JUMPDEST PUSH2 0x693 DUP1 PUSH2 0x14C PUSH0 CODECOPY PUSH0 RETURN INVALID PUSH1 0x80 PUSH1 0x40 MSTORE CALLVALUE DUP1 ISZERO PUSH2 0xF JUMPI PUSH0 DUP1 REVERT JUMPDEST POP PUSH1 0x4 CALLDATASIZE LT PUSH2 0x4A JUMPI PUSH0 CALLDATALOAD PUSH1 0xE0 SHR DUP1 PUSH4 0x69FE0E2D EQ PUSH2 0x4E JUMPI DUP1 PUSH4 0x8DA5CB5B EQ PUSH2 0x6A JUMPI DUP1 PUSH4 0xD3F3CD7B EQ PUSH2 0x88 JUMPI DUP1 PUSH4 0xEF9FC50B EQ PUSH2 0xA4 JUMPI JUMPDEST PUSH0 DUP1 REVERT JUMPDEST PUSH2 0x68 PUSH1 0x4 DUP1 CALLDATASIZE SUB DUP2 ADD SWAP1 PUSH2 0x63 SWAP2 SWAP1 PUSH2 0x3BF JUMP JUMPDEST PUSH2 0xC0 JUMP JUMPDEST STOP JUMPDEST PUSH2 0x72 PUSH2 0x198 JUMP JUMPDEST PUSH1 0x40 MLOAD PUSH2 0x7F SWAP2 SWAP1 PUSH2 0x429 JUMP JUMPDEST PUSH1 0x40 MLOAD DUP1 SWAP2 SUB SWAP1 RETURN JUMPDEST PUSH2 0xA2 PUSH1 0x4 DUP1 CALLDATASIZE SUB DUP2 ADD SWAP1 PUSH2 0x9D SWAP2 SWAP1 PUSH2 0x442 JUMP JUMPDEST PUSH2 0x1BD JUMP JUMPDEST STOP JUMPDEST PUSH2 0xBE PUSH1 0x4 DUP1 CALLDATASIZE SUB DUP2 ADD SWAP1 PUSH2 0xB9 SWAP2 SWAP1 PUSH2 0x442 JUMP JUMPDEST PUSH2 0x2EB JUMP JUMPDEST STOP JUMPDEST DUP1 PUSH0 DUP2 GT DUP1 ISZERO PUSH2 0xD0 JUMPI POP PUSH1 0x64 DUP2 LT JUMPDEST PUSH2 0x10F JUMPI PUSH1 0x40 MLOAD PUSH32 0x8C379A000000000000000000000000000000000000000000000000000000000 DUP2 MSTORE PUSH1 0x4 ADD PUSH2 0x106 SWAP1 PUSH2 0x4DA JUMP JUMPDEST PUSH1 0x40 MLOAD DUP1 SWAP2 SUB SWAP1 REVERT JUMPDEST PUSH0 DUP1 SLOAD SWAP1 PUSH2 0x100 EXP SWAP1 DIV PUSH20 0xFFFFFFFFFFFFFFFFFFFFFFFFFFFFFFFFFFFFFFFF AND PUSH20 0xFFFFFFFFFFFFFFFFFFFFFFFFFFFFFFFFFFFFFFFF AND PUSH4 0x69FE0E2D DUP4 PUSH1 0x40 MLOAD DUP3 PUSH4 0xFFFFFFFF AND PUSH1 0xE0 SHL DUP2 MSTORE PUSH1 0x4 ADD PUSH2 0x167 SWAP2 SWAP1 PUSH2 0x507 JUMP JUMPDEST PUSH0 PUSH1 0x40 MLOAD DUP1 DUP4 SUB DUP2 PUSH0 DUP8 DUP1 EXTCODESIZE ISZERO DUP1 ISZERO PUSH2 0x17E JUMPI PUSH0 DUP1 REVERT JUMPDEST POP GAS CALL ISZERO DUP1 ISZERO PUSH2 0x190 JUMPI RETURNDATASIZE PUSH0 DUP1 RETURNDATACOPY RETURNDATASIZE PUSH0 REVERT JUMPDEST POP POP POP POP POP POP JUMP JUMPDEST PUSH1 0x1 PUSH0 SWAP1 SLOAD SWAP1 PUSH2 0x100 EXP SWAP1 DIV PUSH20 0xFFFFFFFFFFFFFFFFFFFFFFFFFFFFFFFFFFFFFFFF AND DUP2 JUMP JUMPDEST PUSH1 0x1 PUSH0 SWAP1 SLOAD SWAP1 PUSH2 0x100 EXP SWAP1 DIV PUSH20 0xFFFFFFFFFFFFFFFFFFFFFFFFFFFFFFFFFFFFFFFF AND PUSH20 0xFFFFFFFFFFFFFFFFFFFFFFFFFFFFFFFFFFFFFFFF AND CALLER PUSH20 0xFFFFFFFFFFFFFFFFFFFFFFFFFFFFFFFFFFFFFFFF AND EQ PUSH2 0x24E JUMPI CALLER PUSH1 0x40 MLOAD PUSH32 0x439E540500000000000000000000000000000000000000000000000000000000 DUP2 MSTORE PUSH1 0x4 ADD PUSH2 0x245 SWAP2 SWAP1 PUSH2 0x590 JUMP JUMPDEST PUSH1 0x40 MLOAD DUP1 SWAP2 SUB SWAP1 REVERT JUMPDEST DUP1 DUP3 PUSH2 0x25A SWAP2 SWAP1 PUSH2 0x5E9 JUMP JUMPDEST PUSH1 0x2 DUP2 SWAP1 SSTORE POP PUSH0 DUP1 SLOAD SWAP1 PUSH2 0x100 EXP SWAP1 DIV PUSH20 0xFFFFFFFFFFFFFFFFFFFFFFFFFFFFFFFFFFFFFFFF AND PUSH20 0xFFFFFFFFFFFFFFFFFFFFFFFFFFFFFFFFFFFFFFFF AND PUSH4 0x812448A5 PUSH1 0x2 SLOAD PUSH1 0x40 MLOAD DUP3 PUSH4 0xFFFFFFFF AND PUSH1 0xE0 SHL DUP2 MSTORE PUSH1 0x4 ADD PUSH2 0x2BA SWAP2 SWAP1 PUSH2 0x507 JUMP JUMPDEST PUSH0 PUSH1 0x40 MLOAD DUP1 DUP4 SUB DUP2 PUSH0 DUP8 DUP1 EXTCODESIZE ISZERO DUP1 ISZERO PUSH2 0x2D1 JUMPI PUSH0 DUP1 REVERT JUMPDEST POP GAS CALL ISZERO DUP1 ISZERO PUSH2 0x2E3 JUMPI RETURNDATASIZE PUSH0 DUP1 RETURNDATACOPY RETURNDATASIZE PUSH0 REVERT JUMPDEST POP POP POP POP POP POP JUMP JUMPDEST DUP1 DUP3 PUSH2 0x2F7 SWAP2 SWAP1 PUSH2 0x62A JUMP JUMPDEST PUSH1 0x2 DUP2 SWAP1 SSTORE POP PUSH0 DUP1 SLOAD SWAP1 PUSH2 0x100 EXP SWAP1 DIV PUSH20 0xFFFFFFFFFFFFFFFFFFFFFFFFFFFFFFFFFFFFFFFF AND PUSH20 0xFFFFFFFFFFFFFFFFFFFFFFFFFFFFFFFFFFFFFFFF AND PUSH4 0x812448A5 PUSH1 0x2 SLOAD PUSH1 0x40 MLOAD DUP3 PUSH4 0xFFFFFFFF AND PUSH1 0xE0 SHL DUP2 MSTORE PUSH1 0x4 ADD PUSH2 0x357 SWAP2 SWAP1 PUSH2 0x507 JUMP JUMPDEST PUSH0 PUSH1 0x40 MLOAD DUP1 DUP4 SUB DUP2 PUSH0 DUP8 DUP1 EXTCODESIZE ISZERO DUP1 ISZERO PUSH2 0x36E JUMPI PUSH0 DUP1 REVERT JUMPDEST POP GAS CALL ISZERO DUP1 ISZERO PUSH2 0x380 JUMPI RETURNDATASIZE PUSH0 DUP1 RETURNDATACOPY RETURNDATASIZE PUSH0 REVERT JUMPDEST POP POP POP POP POP POP JUMP JUMPDEST PUSH0 DUP1 REVERT JUMPDEST PUSH0 DUP2 SWAP1 POP SWAP2 SWAP1 POP JUMP JUMPDEST PUSH2 0x39E DUP2 PUSH2 0x38C JUMP JUMPDEST DUP2 EQ PUSH2 0x3A8 JUMPI PUSH0 DUP1 REVERT JUMPDEST POP JUMP JUMPDEST PUSH0 DUP2 CALLDATALOAD SWAP1 POP PUSH2 0x3B9 DUP2 PUSH2 0x395 JUMP JUMPDEST SWAP3 SWAP2 POP POP JUMP JUMPDEST PUSH0 PUSH1 0x20 DUP3 DUP5 SUB SLT ISZERO PUSH2 0x3D4 JUMPI PUSH2 0x3D3 PUSH2 0x388 JUMP JUMPDEST JUMPDEST PUSH0 PUSH2 0x3E1 DUP5 DUP3 DUP6 ADD PUSH2 0x3AB JUMP JUMPDEST SWAP2 POP POP SWAP3 SWAP2 POP POP JUMP JUMPDEST PUSH0 PUSH20 0xFFFFFFFFFFFFFFFFFFFFFFFFFFFFFFFFFFFFFFFF DUP3 AND SWAP1 POP SWAP2 SWAP1 POP JUMP JUMPDEST PUSH0 PUSH2 0x413 DUP3 PUSH2 0x3EA JUMP JUMPDEST SWAP1 POP SWAP2 SWAP1 POP JUMP JUMPDEST PUSH2 0x423 DUP2 PUSH2 0x409 JUMP JUMPDEST DUP3 MSTORE POP POP JUMP JUMPDEST PUSH0 PUSH1 0x20 DUP3 ADD SWAP1 POP PUSH2 0x43C PUSH0 DUP4 ADD DUP5 PUSH2 0x41A JUMP JUMPDEST SWAP3 SWAP2 POP POP JUMP JUMPDEST PUSH0 DUP1 PUSH1 0x40 DUP4 DUP6 SUB SLT ISZERO PUSH2 0x458 JUMPI PUSH2 0x457 PUSH2 0x388 JUMP JUMPDEST JUMPDEST PUSH0 PUSH2 0x465 DUP6 DUP3 DUP7 ADD PUSH2 0x3AB JUMP JUMPDEST SWAP3 POP POP PUSH1 0x20 PUSH2 0x476 DUP6 DUP3 DUP7 ADD PUSH2 0x3AB JUMP JUMPDEST SWAP2 POP POP SWAP3 POP SWAP3 SWAP1 POP JUMP JUMPDEST PUSH0 DUP3 DUP3 MSTORE PUSH1 0x20 DUP3 ADD SWAP1 POP SWAP3 SWAP2 POP POP JUMP JUMPDEST PUSH32 0x466565206D757374206265206265747765656E203120616E64203130302E0000 PUSH0 DUP3 ADD MSTORE POP JUMP JUMPDEST PUSH0 PUSH2 0x4C4 PUSH1 0x1E DUP4 PUSH2 0x480 JUMP JUMPDEST SWAP2 POP PUSH2 0x4CF DUP3 PUSH2 0x490 JUMP JUMPDEST PUSH1 0x20 DUP3 ADD SWAP1 POP SWAP2 SWAP1 POP JUMP JUMPDEST PUSH0 PUSH1 0x20 DUP3 ADD SWAP1 POP DUP2 DUP2 SUB PUSH0 DUP4 ADD MSTORE PUSH2 0x4F1 DUP2 PUSH2 0x4B8 JUMP JUMPDEST SWAP1 POP SWAP2 SWAP1 POP JUMP JUMPDEST PUSH2 0x501 DUP2 PUSH2 0x38C JUMP JUMPDEST DUP3 MSTORE POP POP JUMP JUMPDEST PUSH0 PUSH1 0x20 DUP3 ADD SWAP1 POP PUSH2 0x51A PUSH0 DUP4 ADD DUP5 PUSH2 0x4F8 JUMP JUMPDEST SWAP3 SWAP2 POP POP JUMP JUMPDEST PUSH32 0x4F6E6C79206F776E65722063616E206578656375746520746869732066756E63 PUSH0 DUP3 ADD MSTORE PUSH32 0x74696F6E00000000000000000000000000000000000000000000000000000000 PUSH1 0x20 DUP3 ADD MSTORE POP JUMP JUMPDEST PUSH0 PUSH2 0x57A PUSH1 0x24 DUP4 PUSH2 0x480 JUMP JUMPDEST SWAP2 POP PUSH2 0x585 DUP3 PUSH2 0x520 JUMP JUMPDEST PUSH1 0x40 DUP3 ADD SWAP1 POP SWAP2 SWAP1 POP JUMP JUMPDEST PUSH0 PUSH1 0x40 DUP3 ADD SWAP1 POP DUP2 DUP2 SUB PUSH0 DUP4 ADD MSTORE PUSH2 0x5A7 DUP2 PUSH2 0x56E JUMP JUMPDEST SWAP1 POP PUSH2 0x5B6 PUSH1 0x20 DUP4 ADD DUP5 PUSH2 0x41A JUMP JUMPDEST SWAP3 SWAP2 POP POP JUMP JUMPDEST PUSH32 0x4E487B7100000000000000000000000000000000000000000000000000000000 PUSH0 MSTORE PUSH1 0x11 PUSH1 0x4 MSTORE PUSH1 0x24 PUSH0 REVERT JUMPDEST PUSH0 PUSH2 0x5F3 DUP3 PUSH2 0x38C JUMP JUMPDEST SWAP2 POP PUSH2 0x5FE DUP4 PUSH2 0x38C JUMP JUMPDEST SWAP3 POP DUP3 DUP3 MUL PUSH2 0x60C DUP2 PUSH2 0x38C JUMP JUMPDEST SWAP2 POP DUP3 DUP3 DIV DUP5 EQ DUP4 ISZERO OR PUSH2 0x623 JUMPI PUSH2 0x622 PUSH2 0x5BC JUMP JUMPDEST JUMPDEST POP SWAP3 SWAP2 POP POP JUMP JUMPDEST PUSH0 PUSH2 0x634 DUP3 PUSH2 0x38C JUMP JUMPDEST SWAP2 POP PUSH2 0x63F DUP4 PUSH2 0x38C JUMP JUMPDEST SWAP3 POP DUP3 DUP3 ADD SWAP1 POP DUP1 DUP3 GT ISZERO PUSH2 0x657 JUMPI PUSH2 0x656 PUSH2 0x5BC JUMP JUMPDEST JUMPDEST SWAP3 SWAP2 POP POP JUMP INVALID LOG2 PUSH5 0x6970667358 0x22 SLT KECCAK256 0xD7 GASLIMIT SGT RETURN 0xEF 0xE6 SDIV 0xBE PUSH15 0x6FA85B84EE72BBD5102850E6443CCA SHL ADDRESS 0xC7 PUSH5 0xA9E1D96264 PUSH20 0x6F6C634300081A00330000000000000000000000 "
				},
				"gasEstimates": {
					"creation": {
						"codeDepositCost": "336600",
						"executionCost": "infinite",
						"totalCost": "infinite"
					},
					"external": {
						"addNumbers(uint256,uint256)": "infinite",
						"multiplyNumbers(uint256,uint256)": "infinite",
						"owner()": "2508",
						"setFee(uint256)": "infinite"
					}
				},
				"methodIdentifiers": {
					"addNumbers(uint256,uint256)": "ef9fc50b",
					"multiplyNumbers(uint256,uint256)": "d3f3cd7b",
					"owner()": "8da5cb5b",
					"setFee(uint256)": "69fe0e2d"
				}
			},
			"storageLayout": {
				"storage": [
					{
						"astId": 10,
						"contract": "Adder.sol:Adder",
						"label": "result",
						"offset": 0,
						"slot": "0",
						"type": "t_address"
					},
					{
						"astId": 12,
						"contract": "Adder.sol:Adder",
						"label": "owner",
						"offset": 0,
						"slot": "1",
						"type": "t_address"
					},
					{
						"astId": 14,
						"contract": "Adder.sol:Adder",
						"label": "opResult",
						"offset": 0,
						"slot": "2",
						"type": "t_uint256"
					}
				],
				"types": {
					"t_address": {
						"encoding": "inplace",
						"label": "address",
						"numberOfBytes": "20"
					},
					"t_uint256": {
						"encoding": "inplace",
						"label": "uint256",
						"numberOfBytes": "32"
					}
				}
			},
			"userdoc": {
				"kind": "user",
				"methods": {},
				"version": 1
			}
		}
	}
}